{
  "contractName": "PrinterContract",
  "abi": [
    {
      "constant": true,
      "inputs": [],
      "name": "currentLicencePrice",
      "outputs": [
        {
          "name": "",
          "type": "uint256"
        }
      ],
      "payable": false,
      "stateMutability": "view",
      "type": "function"
    },
    {
      "constant": true,
      "inputs": [],
      "name": "owner",
      "outputs": [
        {
          "name": "",
          "type": "address"
        }
      ],
      "payable": false,
      "stateMutability": "view",
      "type": "function"
    },
    {
      "inputs": [],
      "payable": false,
      "stateMutability": "nonpayable",
      "type": "constructor"
    },
    {
      "anonymous": false,
      "inputs": [
        {
          "indexed": true,
          "name": "creator",
          "type": "address"
        },
        {
          "indexed": true,
          "name": "licenceHash",
          "type": "bytes32"
        }
      ],
      "name": "newCreatedLicence",
      "type": "event"
    },
    {
      "anonymous": false,
      "inputs": [
        {
          "indexed": true,
          "name": "id",
          "type": "bytes32"
        }
      ],
      "name": "ChainlinkRequested",
      "type": "event"
    },
    {
      "anonymous": false,
      "inputs": [
        {
          "indexed": true,
          "name": "id",
          "type": "bytes32"
        }
      ],
      "name": "ChainlinkFulfilled",
      "type": "event"
    },
    {
      "anonymous": false,
      "inputs": [
        {
          "indexed": true,
          "name": "id",
          "type": "bytes32"
        }
      ],
      "name": "ChainlinkCancelled",
      "type": "event"
    },
    {
      "constant": false,
      "inputs": [
        {
          "name": "objectHash",
          "type": "string"
        }
      ],
      "name": "createLicence",
      "outputs": [],
      "payable": false,
      "stateMutability": "nonpayable",
      "type": "function"
    },
    {
      "constant": true,
      "inputs": [
        {
          "name": "objectHash",
          "type": "string"
        }
      ],
      "name": "getLicence",
      "outputs": [
        {
          "name": "_creator",
          "type": "address"
        },
        {
          "name": "_objectHash",
          "type": "string"
        },
        {
          "name": "_licenceHash",
          "type": "bytes32"
        }
      ],
      "payable": false,
      "stateMutability": "view",
      "type": "function"
    },
    {
      "constant": false,
      "inputs": [
        {
          "name": "objectHash",
          "type": "string"
        }
      ],
      "name": "setLicence",
      "outputs": [],
      "payable": true,
      "stateMutability": "payable",
      "type": "function"
    },
    {
      "constant": true,
      "inputs": [],
      "name": "getBalance",
      "outputs": [
        {
          "name": "amount",
          "type": "uint256"
        }
      ],
      "payable": false,
      "stateMutability": "view",
      "type": "function"
    },
    {
      "constant": false,
      "inputs": [],
      "name": "withdraw",
      "outputs": [],
      "payable": false,
      "stateMutability": "nonpayable",
      "type": "function"
    },
    {
      "constant": false,
      "inputs": [
        {
          "name": "_requestId",
          "type": "bytes32"
        },
        {
          "name": "_price",
          "type": "uint256"
        }
      ],
      "name": "fulfill",
      "outputs": [],
      "payable": false,
      "stateMutability": "nonpayable",
      "type": "function"
    },
    {
      "constant": false,
      "inputs": [],
      "name": "withdrawLink",
      "outputs": [],
      "payable": false,
      "stateMutability": "nonpayable",
      "type": "function"
    }
  ],
  "bytecode": "0x608060405260016004553480156200001657600080fd5b5033600660006101000a81548173ffffffffffffffffffffffffffffffffffffffff021916908373ffffffffffffffffffffffffffffffffffffffff160217905550620000aa73112234455c3a32fd11230c42e7bccd4a84e020107fead9c0180f6d685e43522fcfe277c2f0465fe930fb32b5b415826eacf9803727600102620000b0640100000000026401000000009004565b620006a2565b600080836000806101000a81548173ffffffffffffffffffffffffffffffffffffffff021916908373ffffffffffffffffffffffffffffffffffffffff160217905550826001816000191690555060015460405180807f6c696e6b00000000000000000000000000000000000000000000000000000000815250600401905060405180910390206040516020018083600019166000191681526020018260001916600019168152602001925050506040516020818303038152906040526040518082805190602001908083835b602083101515620001a457805182526020820191506020810190506020830392506200017d565b6001836020036101000a038019825116818451168082178552505050505050905001915050604051809103902091506000809054906101000a900473ffffffffffffffffffffffffffffffffffffffff1673ffffffffffffffffffffffffffffffffffffffff16630178b8bf836040518263ffffffff167c0100000000000000000000000000000000000000000000000000000000028152600401808260001916600019168152602001915050602060405180830381600087803b1580156200026c57600080fd5b505af115801562000281573d6000803e3d6000fd5b505050506040513d60208110156200029857600080fd5b81019080805190602001909291905050509050620003798173ffffffffffffffffffffffffffffffffffffffff16633b3b57de846040518263ffffffff167c0100000000000000000000000000000000000000000000000000000000028152600401808260001916600019168152602001915050602060405180830381600087803b1580156200032757600080fd5b505af11580156200033c573d6000803e3d6000fd5b505050506040513d60208110156200035357600080fd5b810190808051906020019092919050505062000398640100000000026401000000009004565b62000392620003dc640100000000026401000000009004565b50505050565b80600260006101000a81548173ffffffffffffffffffffffffffffffffffffffff021916908373ffffffffffffffffffffffffffffffffffffffff16021790555050565b60008060015460405180807f6f7261636c650000000000000000000000000000000000000000000000000000815250600601905060405180910390206040516020018083600019166000191681526020018260001916600019168152602001925050506040516020818303038152906040526040518082805190602001908083835b6020831015156200048557805182526020820191506020810190506020830392506200045e565b6001836020036101000a038019825116818451168082178552505050505050905001915050604051809103902091506000809054906101000a900473ffffffffffffffffffffffffffffffffffffffff1673ffffffffffffffffffffffffffffffffffffffff16630178b8bf836040518263ffffffff167c0100000000000000000000000000000000000000000000000000000000028152600401808260001916600019168152602001915050602060405180830381600087803b1580156200054d57600080fd5b505af115801562000562573d6000803e3d6000fd5b505050506040513d60208110156200057957600080fd5b810190808051906020019092919050505090506200065a8173ffffffffffffffffffffffffffffffffffffffff16633b3b57de846040518263ffffffff167c0100000000000000000000000000000000000000000000000000000000028152600401808260001916600019168152602001915050602060405180830381600087803b1580156200060857600080fd5b505af11580156200061d573d6000803e3d6000fd5b505050506040513d60208110156200063457600080fd5b81019080805190602001909291905050506200065e640100000000026401000000009004565b5050565b80600360006101000a81548173ffffffffffffffffffffffffffffffffffffffff021916908373ffffffffffffffffffffffffffffffffffffffff16021790555050565b611e6380620006b26000396000f300608060405260043610610099576000357c0100000000000000000000000000000000000000000000000000000000900463ffffffff16806312065fe01461009e5780632a0af971146100c95780633ccfd60b146100f45780634357855e1461010b5780636fba66a91461014657806374580d291461023c5780638da5cb5b146102a55780638dc654a2146102fc578063c7d0d39814610313575b600080fd5b3480156100aa57600080fd5b506100b3610341565b6040518082815260200191505060405180910390f35b3480156100d557600080fd5b506100de610388565b6040518082815260200191505060405180910390f35b34801561010057600080fd5b5061010961038e565b005b34801561011757600080fd5b50610144600480360381019080803560001916906020019092919080359060200190929190505050610462565b005b34801561015257600080fd5b5061017f6004803603810190808035906020019082018035906020019190919293919293905050506107ac565b604051808473ffffffffffffffffffffffffffffffffffffffff1673ffffffffffffffffffffffffffffffffffffffff168152602001806020018360001916600019168152602001828103825284818151815260200191508051906020019080838360005b838110156101ff5780820151818401526020810190506101e4565b50505050905090810190601f16801561022c5780820380516001836020036101000a031916815260200191505b5094505050505060405180910390f35b34801561024857600080fd5b506102a3600480360381019080803590602001908201803590602001908080601f0160208091040260200160405190810160405280939291908181526020018383808284378201915050505050509192919290505050610923565b005b3480156102b157600080fd5b506102ba610af4565b604051808273ffffffffffffffffffffffffffffffffffffffff1673ffffffffffffffffffffffffffffffffffffffff16815260200191505060405180910390f35b34801561030857600080fd5b50610311610b1a565b005b61033f600480360381019080803590602001908201803590602001919091929391929390505050610dac565b005b6000600860003373ffffffffffffffffffffffffffffffffffffffff1673ffffffffffffffffffffffffffffffffffffffff16815260200190815260200160002054905090565b60075481565b6000600860003373ffffffffffffffffffffffffffffffffffffffff1673ffffffffffffffffffffffffffffffffffffffff1681526020019081526020016000205490503373ffffffffffffffffffffffffffffffffffffffff166108fc829081150290604051600060405180830381858888f19350505050151561041257600080fd5b80600860003373ffffffffffffffffffffffffffffffffffffffff1673ffffffffffffffffffffffffffffffffffffffff1681526020019081526020016000206000828254039250508190555050565b60008060008460056000826000191660001916815260200190815260200160002060009054906101000a900473ffffffffffffffffffffffffffffffffffffffff1673ffffffffffffffffffffffffffffffffffffffff163373ffffffffffffffffffffffffffffffffffffffff1614151561056c576040517f08c379a00000000000000000000000000000000000000000000000000000000081526004018080602001828103825260288152602001807f536f75726365206d75737420626520746865206f7261636c65206f662074686581526020017f207265717565737400000000000000000000000000000000000000000000000081525060400191505060405180910390fd5b60056000826000191660001916815260200190815260200160002060006101000a81549073ffffffffffffffffffffffffffffffffffffffff021916905580600019167f7cc135e0cebb02c3480ae5d74d377283180a2601f8f644edf7987b009316c63a60405160405180910390a2600960008760001916600019168152602001908152602001600020549350600a6000876000191660001916815260200190815260200160002060009054906101000a900473ffffffffffffffffffffffffffffffffffffffff169250600b6000856000191660001916815260200190815260200160002060000160009054906101000a900473ffffffffffffffffffffffffffffffffffffffff169150600d60008473ffffffffffffffffffffffffffffffffffffffff1673ffffffffffffffffffffffffffffffffffffffff16815260200190815260200160002054600860008473ffffffffffffffffffffffffffffffffffffffff1673ffffffffffffffffffffffffffffffffffffffff16815260200190815260200160002060008282540192505081905550600d60008473ffffffffffffffffffffffffffffffffffffffff1673ffffffffffffffffffffffffffffffffffffffff16815260200190815260200160002060009055600a6000876000191660001916815260200190815260200160002060006101000a81549073ffffffffffffffffffffffffffffffffffffffff021916905560096000876000191660001916815260200190815260200160002060009055505050505050565b600060606000806000868690501115156107c557600080fd5b85856040518083838082843782019150509250505060405180910390209050600b6000826000191660001916815260200190815260200160002060020160009054906101000a900460ff16151561081b57600080fd5b600b6000826000191660001916815260200190815260200160002060000160009054906101000a900473ffffffffffffffffffffffffffffffffffffffff16600b6000836000191660001916815260200190815260200160002060010182818054600181600116156101000203166002900480601f01602080910402602001604051908101604052809291908181526020018280546001816001161561010002031660029004801561090e5780601f106108e35761010080835404028352916020019161090e565b820191906000526020600020905b8154815290600101906020018083116108f157829003601f168201915b50505050509150935093509350509250925092565b600080825111151561093457600080fd5b816040518082805190602001908083835b60208310151561096a5780518252602082019150602081019050602083039250610945565b6001836020036101000a03801982511681845116808217855250505050505090500191505060405180910390209050600b6000826000191660001916815260200190815260200160002060020160009054906101000a900460ff161515156109d157600080fd5b6060604051908101604052803373ffffffffffffffffffffffffffffffffffffffff16815260200183815260200160011515815250600b6000836000191660001916815260200190815260200160002060008201518160000160006101000a81548173ffffffffffffffffffffffffffffffffffffffff021916908373ffffffffffffffffffffffffffffffffffffffff1602179055506020820151816001019080519060200190610a84929190611cf0565b5060408201518160020160006101000a81548160ff02191690831515021790555090505080600019163373ffffffffffffffffffffffffffffffffffffffff167fcc3a838a8c4df217484144c082062b913fa8e95874735bc16a90a5d29fa8980160405160405180910390a35050565b600660009054906101000a900473ffffffffffffffffffffffffffffffffffffffff1681565b6000600660009054906101000a900473ffffffffffffffffffffffffffffffffffffffff1673ffffffffffffffffffffffffffffffffffffffff163373ffffffffffffffffffffffffffffffffffffffff16141515610b7857600080fd5b610b80610e77565b90508073ffffffffffffffffffffffffffffffffffffffff1663a9059cbb338373ffffffffffffffffffffffffffffffffffffffff166370a08231306040518263ffffffff167c0100000000000000000000000000000000000000000000000000000000028152600401808273ffffffffffffffffffffffffffffffffffffffff1673ffffffffffffffffffffffffffffffffffffffff168152602001915050602060405180830381600087803b158015610c3a57600080fd5b505af1158015610c4e573d6000803e3d6000fd5b505050506040513d6020811015610c6457600080fd5b81019080805190602001909291905050506040518363ffffffff167c0100000000000000000000000000000000000000000000000000000000028152600401808373ffffffffffffffffffffffffffffffffffffffff1673ffffffffffffffffffffffffffffffffffffffff16815260200182815260200192505050602060405180830381600087803b158015610cfa57600080fd5b505af1158015610d0e573d6000803e3d6000fd5b505050506040513d6020811015610d2457600080fd5b81019080805190602001909291905050501515610da9576040517f08c379a00000000000000000000000000000000000000000000000000000000081526004018080602001828103825260128152602001807f556e61626c6520746f207472616e73666572000000000000000000000000000081525060200191505060405180910390fd5b50565b60008083839050111515610dbf57600080fd5b82826040518083838082843782019150509250505060405180910390209050600b6000826000191660001916815260200190815260200160002060020160009054906101000a900460ff161515610e1557600080fd5b60003414151515610e2557600080fd5b34600d60003373ffffffffffffffffffffffffffffffffffffffff1673ffffffffffffffffffffffffffffffffffffffff16815260200190815260200160002081905550610e7281610ea1565b505050565b6000600260009054906101000a900473ffffffffffffffffffffffffffffffffffffffff16905090565b606080610eac611d70565b6000600b600086600019166000191681526020019081526020016000206001018054600181600116156101000203166002900480601f016020809104026020016040519081016040528092919081815260200182805460018160011615610100020316600290048015610f605780601f10610f3557610100808354040283529160200191610f60565b820191906000526020600020905b815481529060010190602001808311610f4357829003601f168201915b505050505093508360405160200180807f7b2768617368273a27000000000000000000000000000000000000000000000081525060090182805190602001908083835b602083101515610fc85780518252602082019150602081019050602083039250610fa3565b6001836020036101000a038019825116818451168082178552505050505050905001807f277d00000000000000000000000000000000000000000000000000000000000081525060020191505060405160208183030381529060405292506110747f666235666237623138393231343837666232363530336362303735616266343130634357855e7c010000000000000000000000000000000000000000000000000000000002611281565b915061111c6040805190810160405280600481526020017f706f737400000000000000000000000000000000000000000000000000000000815250606060405190810160405280602e81526020017f68747470733a2f2f65746870617269732e6865726f6b756170702e636f6d2f7081526020017f726963655f66726f6d5f68617368000000000000000000000000000000000000815250846112b29092919063ffffffff16565b6111666040805190810160405280600681526020017f726573756c74000000000000000000000000000000000000000000000000000081525084846112b29092919063ffffffff16565b6111e56040805190810160405280600481526020017f70617468000000000000000000000000000000000000000000000000000000008152506040805190810160405280600581526020017f7072696365000000000000000000000000000000000000000000000000000000815250846112b29092919063ffffffff16565b6111fa82670de0b6b3a76400006001026112e5565b905084600960008360001916600019168152602001908152602001600020816000191690555033600a6000836000191660001916815260200190815260200160002060006101000a81548173ffffffffffffffffffffffffffffffffffffffff021916908373ffffffffffffffffffffffffffffffffffffffff1602179055505050505050565b611289611d70565b611291611d70565b6112a88585858461131c909392919063ffffffff16565b9150509392505050565b6112c98284608001516113d590919063ffffffff16565b6112e08184608001516113d590919063ffffffff16565b505050565b6000611314600360009054906101000a900473ffffffffffffffffffffffffffffffffffffffff1684846113fa565b905092915050565b611324611d70565b6113348560800151610100611786565b838560000190600019169081600019168152505082856020019073ffffffffffffffffffffffffffffffffffffffff16908173ffffffffffffffffffffffffffffffffffffffff16815250508185604001907bffffffffffffffffffffffffffffffffffffffffffffffffffffffff191690817bffffffffffffffffffffffffffffffffffffffffffffffffffffffff191681525050849050949350505050565b6113e282600383516117da565b6113f5818361193390919063ffffffff16565b505050565b600030600454604051602001808373ffffffffffffffffffffffffffffffffffffffff1673ffffffffffffffffffffffffffffffffffffffff166c01000000000000000000000000028152601401828152602001925050506040516020818303038152906040526040518082805190602001908083835b6020831015156114965780518252602082019150602081019050602083039250611471565b6001836020036101000a038019825116818451168082178552505050505050905001915050604051809103902090506004548360600181815250508360056000836000191660001916815260200190815260200160002060006101000a81548173ffffffffffffffffffffffffffffffffffffffff021916908373ffffffffffffffffffffffffffffffffffffffff16021790555080600019167fb5e6e01e79f91267dc17b4e6314d5d4d03593d2ceee0fbb452b750bd70ea5af960405160405180910390a2600260009054906101000a900473ffffffffffffffffffffffffffffffffffffffff1673ffffffffffffffffffffffffffffffffffffffff16634000aea085846115a5876119df565b6040518463ffffffff167c0100000000000000000000000000000000000000000000000000000000028152600401808473ffffffffffffffffffffffffffffffffffffffff1673ffffffffffffffffffffffffffffffffffffffff16815260200183815260200180602001828103825283818151815260200191508051906020019080838360005b8381101561164857808201518184015260208101905061162d565b50505050905090810190601f1680156116755780820380516001836020036101000a031916815260200191505b50945050505050602060405180830381600087803b15801561169657600080fd5b505af11580156116aa573d6000803e3d6000fd5b505050506040513d60208110156116c057600080fd5b8101908080519060200190929190505050151561176b576040517f08c379a00000000000000000000000000000000000000000000000000000000081526004018080602001828103825260238152602001807f756e61626c6520746f207472616e73666572416e6443616c6c20746f206f726181526020017f636c65000000000000000000000000000000000000000000000000000000000081525060400191505060405180910390fd5b60016004600082825401925050819055508090509392505050565b60006117b860207fffffffffffffffffffffffffffffffffffffffffffffffffffffffffffffffe0601f850116611c0a565b9050808360200181815250506040518084526000815281810160405250505050565b60178111151561180b576118068160058460ff169060020a0260ff161784611c2690919063ffffffff16565b61192e565b60ff8111151561185157611835601860058460ff169060020a021784611c2690919063ffffffff16565b61184b81600185611c669092919063ffffffff16565b5061192d565b61ffff811115156118985761187c601960058460ff169060020a021784611c2690919063ffffffff16565b61189281600285611c669092919063ffffffff16565b5061192c565b63ffffffff811115156118e1576118c5601a60058460ff169060020a021784611c2690919063ffffffff16565b6118db81600485611c669092919063ffffffff16565b5061192b565b67ffffffffffffffff8111151561192a57611912601b60058460ff169060020a021784611c2690919063ffffffff16565b61192881600885611c669092919063ffffffff16565b505b5b5b5b5b505050565b61193b611dde565b600080600080866020015187600001515187510111156119715761197087600261196a8a602001518a51611c0a565b02611ccd565b5b8551915086518051602081830101955087518101825260208801945050505b6020821015156119b55782518452602084019350602083019250602082039150611990565b6001826020036101000a039050801983511681855116818117865250508694505050505092915050565b6060600360009054906101000a900473ffffffffffffffffffffffffffffffffffffffff1673ffffffffffffffffffffffffffffffffffffffff16634042994690507c01000000000000000000000000000000000000000000000000000000000260008084600001518560200151866040015187606001516001896080015160000151604051602401808973ffffffffffffffffffffffffffffffffffffffff1673ffffffffffffffffffffffffffffffffffffffff16815260200188815260200187600019166000191681526020018673ffffffffffffffffffffffffffffffffffffffff1673ffffffffffffffffffffffffffffffffffffffff168152602001857bffffffffffffffffffffffffffffffffffffffffffffffffffffffff19167bffffffffffffffffffffffffffffffffffffffffffffffffffffffff1916815260200184815260200183815260200180602001828103825283818151815260200191508051906020019080838360005b83811015611b6d578082015181840152602081019050611b52565b50505050905090810190601f168015611b9a5780820380516001836020036101000a031916815260200191505b509950505050505050505050604051602081830303815290604052907bffffffffffffffffffffffffffffffffffffffffffffffffffffffff19166020820180517bffffffffffffffffffffffffffffffffffffffffffffffffffffffff83818316178352505050509050919050565b600081831115611c1c57829050611c20565b8190505b92915050565b81602001516001836000015151011115611c4c57611c4b826002846020015102611ccd565b5b815180516020818301018381536001820183525050505050565b611c6e611dde565b6000846020015185600001515184011115611c9e57611c9d856002611c97886020015187611c0a565b02611ccd565b5b6001836101000a0390508451805184818301018684198251161781528582018352505050849150509392505050565b606082600001519050611ce08383611786565b611cea8382611933565b50505050565b828054600181600116156101000203166002900490600052602060002090601f016020900481019282601f10611d3157805160ff1916838001178555611d5f565b82800160010185558215611d5f579182015b82811115611d5e578251825591602001919060010190611d43565b5b509050611d6c9190611df8565b5090565b60c06040519081016040528060008019168152602001600073ffffffffffffffffffffffffffffffffffffffff16815260200160007bffffffffffffffffffffffffffffffffffffffffffffffffffffffff1916815260200160008152602001611dd8611e1d565b81525090565b604080519081016040528060608152602001600081525090565b611e1a91905b80821115611e16576000816000905550600101611dfe565b5090565b90565b6040805190810160405280606081526020016000815250905600a165627a7a7230582083b58979804695bf81c9522cfdc5949fb04ad69d419e05c8c59afd17040d927a0029",
  "source": "pragma solidity 0.4.24;\n\nimport \"chainlink/solidity/contracts/Chainlinked.sol\";\n\ncontract PrinterContract is Chainlinked {\n    address public owner;\n\n    // Helper constant for testnets: 1 request = 1 LINK\n    uint256 constant private ORACLE_PAYMENT = 1 * LINK;\n    uint256 public currentLicencePrice;\n\n    address constant ROPSTEN_ENS = 0x112234455C3a32FD11230C42E7Bccd4A84e02010;\n    bytes32 constant ROPSTEN_CHAINLINK_ENS = 0xead9c0180f6d685e43522fcfe277c2f0465fe930fb32b5b415826eacf9803727;\n\n    // Creates constants for the JobIDs within the documentation.\n    bytes32 constant GET_BYTES32_JOB = bytes32(\"5b280bfed77646d297fdb6e718c7127a\");\n    bytes32 constant POST_BYTES32_JOB = bytes32(\"469e74c5bca740c0addba9ea67eecc51\");\n    bytes32 constant INT256_JOB = bytes32(\"93032b68d4704fa6be2c3ccf7a23c107\");\n    bytes32 constant INT256_MUL_JOB = bytes32(\"e055293deb37425ba83a2d5870c57649\");\n    bytes32 constant UINT256_JOB = bytes32(\"fb5fb7b18921487fb26503cb075abf41\");\n    bytes32 constant UINT256_MUL_JOB = bytes32(\"493610cff14346f786f88ed791ab7704\");\n    bytes32 constant BOOL_JOB = bytes32(\"7ac0b3beac2c448cb2f6b2840d61d31f\");\n\n    event newCreatedLicence(address indexed creator, bytes32 indexed licenceHash);\n\n\n    constructor() public {\n        owner = msg.sender;\n        setChainlinkWithENS(ROPSTEN_ENS, ROPSTEN_CHAINLINK_ENS);\n    }\n\n    struct CreateLicence {\n        address creator;\n        string objectHash;\n        bool exists;\n    }\n\n    struct AssignLicence {\n        address assignedAccount;\n        string objectHash;\n        uint counter;\n    }\n\n    mapping (address => uint) accountBalance;\n\n    mapping (bytes32 => bytes32) licenseRequests;\n    mapping (bytes32 => address) userRequests;\n    mapping (bytes32 => CreateLicence) licenceStruct;\n    mapping (bytes32 => AssignLicence[]) assignedList;\n    mapping (address => uint256) deposits;\n\n    function createLicence(string memory objectHash) public {\n        require(bytes(objectHash).length > 0);\n        bytes32 licenceHash = keccak256(bytes(objectHash));\n        require(!licenceStruct[licenceHash].exists);\n\n        // push licence by sender address\n        licenceStruct[licenceHash] = CreateLicence(msg.sender, objectHash, true);\n        emit newCreatedLicence(msg.sender, licenceHash);\n    }\n\n    function getLicence(string objectHash) external view returns (address _creator, string memory _objectHash, bytes32 _licenceHash) {\n        require(bytes(objectHash).length > 0);\n\n        bytes32 licenceHash = keccak256(bytes(objectHash));\n        require(licenceStruct[licenceHash].exists);\n\n        return (licenceStruct[licenceHash].creator,\n        licenceStruct[licenceHash].objectHash,\n        licenceHash);\n    }\n\n    function setLicence(string objectHash) external payable {\n        require(bytes(objectHash).length > 0);\n\n        bytes32 licenceHash = keccak256(bytes(objectHash));\n\n        require(licenceStruct[licenceHash].exists);\n        require(msg.value != 0);\n\n        deposits[msg.sender] = msg.value;\n\n        requestLicencePrice(licenceHash);\n    }\n\n    function getBalance() external view returns (uint256 amount) {\n        return (accountBalance[msg.sender]);\n    }\n\n    function withdraw() external {\n\n        uint256 value = accountBalance[msg.sender];\n\n        // Try sending ether.\n        if (!msg.sender.send(value))\n            revert();  // In case of failure revert the transaction.\n\n        accountBalance[msg.sender] -= value;\n    }\n\n    // Creates a Chainlink request with the uint256 multiplier job\n    function requestLicencePrice(bytes32 _licenceHash) internal {\n        string memory objectHash = licenceStruct[_licenceHash].objectHash;\n        string memory body = string(abi.encodePacked(\"{'hash':'\", objectHash, \"'}\"));\n\n        // newRequest takes a JobID, a callback address, and callback function as input\n        Chainlink.Request memory req = newRequest(UINT256_JOB, this, this.fulfill.selector);\n\n        // Adds a URL with the key \"get\" to the request parameters\n        req.add(\"post\", \"https://ethparis.herokuapp.com/price_from_hash\");\n        req.add(\"result\", body);\n        req.add(\"path\", \"price\");\n        // Sends the request with 1 LINK to the oracle contract\n        bytes32 requestId = chainlinkRequest(req, ORACLE_PAYMENT);\n        licenseRequests[requestId] = _licenceHash;\n        userRequests[requestId] = msg.sender;\n    }\n\n    // fulfill receives a bytes32 data type\n    function fulfill(bytes32 _requestId, uint256 _price) public\n        // Use recordChainlinkFulfillment to ensure only the requesting oracle can fulfill\n    recordChainlinkFulfillment(_requestId)\n    {\n        bytes32 licenceHash = licenseRequests[_requestId];\n        address sender = userRequests[_requestId];\n\n        //require(_price == deposits[sender]);\n\n        address to = licenceStruct[licenceHash].creator;\n        accountBalance[to] += deposits[sender];\n\n        delete deposits[sender];\n        delete userRequests[_requestId];\n        delete licenseRequests[_requestId];\n    }\n\n    // withdrawLink allows the owner to withdraw any extra LINK on the contract\n    function withdrawLink()\n    public\n    onlyOwner\n    {\n        LinkTokenInterface link = LinkTokenInterface(chainlinkToken());\n        require(link.transfer(msg.sender, link.balanceOf(address(this))), \"Unable to transfer\");\n    }\n\n    modifier onlyOwner() {\n        require(msg.sender == owner);\n        _;\n    }\n}\n",
  "sourcePath": "/Users/michelkansou/Documents/ethparis-coddity/src/ethereum/contracts/PrinterContract.sol",
  "compiler": {
    "name": "solc",
    "version": "0.4.24+commit.e67f0147.Emscripten.clang"
  },
  "schemaVersion": "3.0.2",
  "updatedAt": "2019-03-10T04:31:27.976Z",
  "devdoc": {
    "methods": {}
  },
  "userdoc": {
    "methods": {}
  }
}